:020000040800F2
:1000000018040020650100082B0C0008DF0B000815
:10001000290C00084D020008350D00080000000002
:100020000000000000000000000000004F0C00086D
:100030004F020008000000004D0C0008510C0008A1
:100040007F0100087F0100087F0100087F01000890
:100050007F0100087F0100087F0100087F01000880
:100060007F0100087F0100087F0100087F01000870
:100070007F0100087F0100087F0100087F01000860
:100080007F0100087F0100087F0100087F01000850
:100090007F0100087F0100087F0100087F01000840
:1000A0007F0100087F0100087F0100087F01000830
:1000B0007F0100087F0100087F0100087F01000820
:1000C0007F0100087F0100087F0100087F01000810
:1000D0007F0100087F0100087F0100087F01000800
:1000E0007F0100087F0100087F0100080000000078
:1000F0000000000000000000000000000000000000
:1001000000000000000000007F0100087F010008DF
:100110007F0100087F0100087F0100087F010008BF
:100120007F0100087F0100087F0100087F010008AF
:100130007F0100087F0100087F0100087F0100089F
:100140007F0100087F0100087F0100087F0100088F
:10015000DFF80CD000F068F800480047550D0008A3
:10016000180400200648804706480047FEE7FEE7DF
:10017000FEE7FEE7FEE7FEE7FEE7FEE7FEE7FEE757
:10018000E10C0008510100082DE9F05F0546002050
:1001900092469B4688460646814640241BE02846F8
:1001A00041464746224600F020F853465A46C01AB8
:1001B000914110D311461846224600F026F82D1A18
:1001C00067EB01084F4622460120002100F01DF890
:1001D00017EB00094E41201EA4F10104DFDC484664
:1001E00031462A464346BDE8F09F202A04DB203AE8
:1001F00021FA02F00021704721FA02F3D040C2F147
:1002000020029140084319467047202A04DB203A17
:1002100000FA02F1002070479140C2F1200320FA59
:1002200003F3194390407047064C074D06E0E06821
:1002300040F0010394E8070098471034AC42F6D32D
:10024000FFF78AFF980D0008B80D0008FEE7704719
:1002500070B5044600F0F6F80546601C02D004486C
:100260000078044400F0EEF8401BA042FAD370BDC1
:10027000040000202DE9F84FDFF890A100220AF1D8
:10028000040B144601274FF00F090BF1040E00BFB9
:100290000B6807FA04F52B40AB4274D1DFF870C14C
:1002A0004E68A6EB0C0866452BD00DDC032E34D02F
:1002B00005DC36B3012E19D0022E2FD11BE0112EF2
:1002C00016D0122E2AD119E0B8F5881F19D006DCF5
:1002D000B8F5803F15D0B8F5801F1FD111E0B8F5F3
:1002E000001F0ED0B8F5041F18D10AE0CA6815E047
:1002F000CA68121D12E0CA6808320FE0CA680C32E0
:100300000CE08A682AB1012A4FF0080203D0456147
:1003100004E0042202E0056100E00022FF2B01D886
:10032000064601E000F104064FEA840501D9A5F173
:100330002005D6F800C009FA05F82CEA080C02FAE4
:1003400005F54CEA050CC6F800C04D68ED0057D520
:10035000304DAE6946F00106AE61AD6924F003068A
:1003600005F0010500952C4D06EB050CDCF8085056
:10037000A6074FEA167809FA08F6B543274EB042A9
:1003800002D1002610E03BE0254EB04201D101260B
:100390000AE0244EB04201D1022605E0224EB042CE
:1003A00001D1032600E0042606FA08F62E43CCF815
:1003B00008604D68DAF80060ED03554601D51E432C
:1003C00000E09E432E604D68DBF80060AD035D46A3
:1003D00001D51E4300E09E432E604D68DEF80060AC
:1003E000ED02754601D51E4300E09E432E604D6828
:1003F000AD020E4D2E6801D51E4300E09E432E60D7
:10040000641C102CFFF444AFBDE8F88F00040140D9
:1004100000001110001002400000014000080140DF
:10042000000C014000100140001401400C04014088
:10043000C2684A40C26070470AB10161704709044E
:10044000FBE70000014880687047000004000020BE
:1004500002488168027811448160704704000020DE
:10046000074810B5016841F010010160032000F059
:1004700089F8002000F006F800F024F8002010BDF4
:100480000020024070B50D4D04464FF47A71287873
:10049000B1FBF0F00A490968B1FBF0F000F087FB0E
:1004A00048B9102C07D200222146501E00F04AF80D
:1004B00000206C6070BD012070BD000004000020B1
:1004C000100000201E4808B5816941F001018161DA
:1004D000816901F001010091C16941F08051C16160
:1004E000C06900F080500090032000F04BF800221B
:1004F00011466FF00B0000F025F8002211466FF056
:100500000A0000F01FF8002211466FF0090000F009
:1005100019F800221146501F00F014F8002211466D
:10052000101F00F00FF800221146901E00F00AF88C
:100530000022BDE808401146501E00F003B800003C
:1005400000100240F0B40E4B1B680C46C3F30223AC
:10055000C3F10705042D00D90425191D072901D26F
:10056000002300E0DB1E012606FA05F1491E2140AA
:1005700099409E40761E16403143F0BC00F056BBB9
:100580000CED00E0064900F0070208684FF6FF0393
:10059000184040EA0220034A1043086070470000F8
:1005A0000CED00E00000FA052DE9F047DFF83C8192
:1005B00005460E46D8F8000000F00700B0420CD205
:1005C000D8F8001021F007013143C8F80010D8F81E
:1005D000000000F00700B04263D12878444C800747
:1005E00005D56068A96820F0F000084360602878AD
:1005F000C00745D06868012816D02168022816D0A7
:10060000890700294DDA616821F003010143616027
:10061000FFF718FF6968074641F2883001290FD0BB
:100620000229814619D027E021688903E9E7890179
:10063000E7E700BFFFF706FFC11B494501D918E0F6
:1006400081466068C0F381000128F3D118E000BF43
:10065000FFF7F8FEC11B49450BD86068C0F3810065
:100660000228F5D10CE000BFFFF7ECFEC11B4945A5
:1006700002D90320BDE8F087606810F00C0FF3D1B9
:10068000D8F80010404601F00701B1420BD90168CB
:1006900021F0070131430160006800F00700B0421B
:1006A00001D00120E6E72878400705D56068E968B1
:1006B00020F4E060084360602878000706D5606891
:1006C000296920F4605040EAC100606000F01CF825
:1006D0006168084AC1F30311515CC84006490860CB
:1006E0000020FFF7CFFE0020C4E7000000200240FA
:1006F00000100240880D000810000020014800682A
:100700007047000010000020F0B524A289B00FCA85
:1007100004AC84E80F0025A10FC98DE80F0027481D
:10072000416801F00C02042A04D0082A04D02448AD
:1007300009B0F0BD2348FBE704AAC1F38343C90312
:10074000D45C28D5C16AC26A01F00F011DF80110FE
:10075000D20316D5C26AC06AC2F30312521CA2FBAE
:100760000123C0F30320801CA0FB0415154F0026B5
:10077000A1FB070C05FB07C501FB0651FFF704FDB4
:1007800003E010486043B0FBF1F09DF81D10A1425A
:10079000CED14008CCE70C486043C9E7000004050F
:1007A0000607080900000000000D00000102030414
:1007B00005060708090A0B0C0D0E0F100010024069
:1007C00000127A0040787D0100093D002DE9F84FC4
:1007D00004460078EA4DC00748D06868C0F381003D
:1007E000012807D06868C0F38100022809D1686831
:1007F000C00306D52868800338D5A06800286FD0CC
:1008000034E0A068B0F5803F0BD010B1B0F5A02F58
:1008100011D0286820F480302860286820F48020D7
:1008200002E0286840F480302860A06888B1FFF7B3
:1008300009FE064609E0286840F480202860F0E7B9
:10084000FFF700FE801B642878D828688003F7D55E
:100850000CE0FFF7F7FD064605E000BFFFF7F2FDED
:10086000801B6428F0D828688003F7D42078C54E10
:1008700080074FF001094FF000073CD5686810F081
:100880000C0F07D06868C0F38100022809D168689E
:10089000C00306D42868800715D5606901281FD1D8
:1008A00011E06069B8B1C6F80090FFF7CBFD804653
:1008B00006E000BFFFF7C6FDA0EB08000228C3D882
:1008C00028688007F6D52868A16920F0F80040EA7A
:1008D000C10028600FE03760FFF7B4FD804607E0F5
:1008E0002DE100BFFFF7AEFDA0EB08000228ABD85A
:1008F00028688007F6D4207800072ED5A248E16941
:10090000E9B1C0F80090FFF79DFD804606E000BF0A
:10091000FFF798FDA0EB0800022895D8686A8007C9
:10092000F6D59A484FF4FA510068B0FBF1F0009008
:1009300000BF0098411E0091FAD20EE0B0E00760BF
:10094000FFF780FD804605E0FFF77CFDA0EB080087
:10095000022887D8686A8007F6D42078400763D5D4
:10096000E8694FF00008C00009D4E86940F0805001
:10097000E861E8694FF0010800F080500090844879
:100980000168C90512D40168834641F48071016091
:10099000FFF758FD824605E0FFF754FDA0EB0A0083
:1009A00064287DD8DBF80000C005F5D52069012852
:1009B0000AD008B1052813D0286A20F00100286267
:1009C000286A20F0040002E0286A40F00100286252
:1009D000206941F2883B98B1FFF734FD82460BE075
:1009E000286A40F004002862EEE700BFFFF72AFD06
:1009F000A0EB0A01594553D8286A8007F6D50CE0C8
:100A0000FFF720FD824605E0FFF71CFDA0EB0A0181
:100A1000594545D8286A8007F6D4B8F1000F03D0AD
:100A2000E86920F08050E861E06AD0B36968C903E2
:100A300007D56968C1F38101022902D1E96AC903B6
:100A40007DD4022808D0E86A20F48030E862B766D6
:100A5000FFF7F8FC80463BE02868C00005D5E86A4F
:100A6000616B00F0F000884269D1B766FFF7EAFCDD
:100A7000804605E0FFF7E6FCA0EB0800642874D888
:100A800028680001F6D4E86A616B20F0F0000843A2
:100A9000E862E86A216B20F470600843E86201E0D4
:100AA00063E018E0C6F86890FFF7CCFC804605E0EC
:100AB000FFF7C8FCA0EB0800642856D8286800019E
:100AC000F6D508E0FFF7BEFCA0EB080064284CD880
:100AD00028680001F6D4206A90B36968C1F38101E7
:100AE00002294AD00228376603D0FFF7ABFC044640
:100AF0003EE0FFF7A7FC074605E000BFFFF7A2FCBA
:100B0000C01B022831D828688001F7D4606AB0F58C
:100B1000803F09D1E86A61680843E862E86AE168F1
:100B200020F00F000843E862D4E90901084369682E
:100B300021F4741108436860C6F8609001E01CE07D
:100B400019E0FFF77FFC044605E000BFFFF77AFCE1
:100B5000001B022809D828688001F7D50BE000BFE8
:100B6000FFF770FC001B022802D90320BDE8F88FB4
:100B700028688001F4D40020F8E70120F6E700009F
:100B80000010024000004242800442421000002057
:100B9000007000404FF0E0210428086903D020F0E5
:100BA00004000861704740F00400FAE7704710B590
:100BB000401EB0F1807F01D3012010BD4FF0E02432
:100BC00060610F21601700F031F80020A06107205C
:100BD0002061002010BD10B5FFF7E8FF10BDFEE753
:100BE0000F4810B5816986B041F0200181618069AC
:100BF0000C4C00F020000490012208212046FFF751
:100C00001BFC08200090012001900020029002208F
:100C1000039069462046FFF72DFB06B010BD00008B
:100C20000010024000140140FEE770470907090E5A
:100C3000002806DA00F00F0000F1E02080F8141D13
:100C4000704700F1E02080F800147047704770474B
:100C500010B5FFF7FDFBBDE81040FFF7BCBF00007B
:100C600030B593B0012528040421CDE90201022406
:100C7000CDE908400095019005954FF4E010CDE9CD
:100C80000A044FF4C0600C9040200D906846FFF7B6
:100C90009DFD00B1FEE70F20CDE90E0400204FF4CA
:100CA0008061CDE91001129002210EA8FFF77CFCB3
:100CB00000B1FEE7FFF722FD4FF47A71B0FBF1F0CF
:100CC000FFF775FF0420FFF765FF04480567002262
:100CD0001146501EFFF736FC13B030BD00004242F3
:100CE0001048016841F00101016041680E4A11405D
:100CF000416001680D4A11400160016821F48021C2
:100D00000160416821F4FE014160016821F0A051B9
:100D100001604FF47F0181600021C1620449C0037A
:100D200008607047001002400000FFF0FFFFF6FE71
:100D300008ED00E0FEE702E008C8121F08C1002A23
:100D4000FAD170477047002001E001C1121F002A4C
:100D5000FBD17047FFF784FBFFF782FFFFF740FFEF
:100D6000074D084C4FF47A7608212846FFF760FBC0
:100D70002068401C20603046FFF76AFAF4E7000064
:100D800000140140000000200000000000000000EE
:100D90000102030406070809B80D0008000000203E
:100DA00014000000360D0008CC0D000814000020CF
:100DB00004040000460D00080000000001000000CF
:0C0DC000100000000000000000A24A0427
:04000005080001519D
:00000001FF
